:020000040001F9
:10B00000E037002049B1010063B1010065B10100E2
:10B010000000000000000000000000000000000030
:10B0200000000000000000000000000067B1010007
:10B03000000000000000000069B101006BB10100D8
:10B040006DB101006DB10100FDB401006DB10100F1
:10B050006DB1010000000000A5B201006DB101005A
:10B060006DB10100CDB40100E5B401006DB1010086
:10B070006DB101006DB101006DB101006DB1010054
:10B080006DB10100E5B301006DB101006DB10100CA
:10B0900005B401006DB101000DB401006DB10100F6
:10B0A0006DB101006DB10100000000000000000062
:10B0B0000000000000000000000000000000000090
:10B0C0000348854600F0BEF80048004759E40100F7
:10B0D000E0370020401E00BF00BF00BF00BF00BF20
:10B0E00000BF00BF00BF00BF00BF00BF00BFF1D165
:10B0F00070470000056885F308884068FF2464B243
:10B10000EFF30585002D01D1A646004725460646EA
:10B1100021273FBAF0B40024002500260027F0B410
:10B12000F92040B200470000401E00BF00BF00BF32
:10B1300000BF00BF00BF00BF00BF00BF00BF00BF17
:10B1400000BFF1D1704700000321094802680A439B
:10B150000260084802680A430260074880470748BF
:10B160000047FEE7FEE7FEE7FEE7FEE7FEE700003A
:10B1700024050040540500402DB40100C1B0010079
:10B1800030B50B46014600202022012409E00D467F
:10B19000D5409D4205D31D469540491B2546954007
:10B1A00040191546521E002DF1DC30BD70B500244B
:10B1B0002546002801DA01244042002901DA012550
:10B1C0004942FFF7DDFFAC4200D04042002C00D0E6
:10B1D000494270BD03460B439B0703D009E008C9F1
:10B1E000121F08C0042AFAD203E00B780370401C37
:10B1F000491C521EF9D27047D2B201E00270401CC5
:10B20000491EFBD270470022F6E710B513460A46E6
:10B2100004461946FFF7F0FF204610BD421C017896
:10B22000401C0029FBD1801A704730B5044600202D
:10B23000034600E05B1C934203D2E05CCD5C401B04
:10B24000F8D030BD064C0125064E05E0E36807CC7A
:10B250002B430C3C98471034B442F7D3FFF734FF2C
:10B26000DC040200FC04020030B58C180278401C9B
:10B2700013071B0F01D10378401C120906D1027875
:10B28000401C03E005780D70401C491C5B1EF9D181
:10B2900001E00B70491C521EFBD1A142E6D30020F5
:10B2A00030BD0000F8B50024FF25013501262746F2
:10B2B0000094284603F010FE002808D0314840686A
:10B2C000304204D0304800212818344301602D1D3D
:10B2D00076007F1CADB2042FEBD3FF207D3003F04E
:10B2E000FBFD002807D029480021016040070443E6
:10B2F000274800690090274E200712D0012700251B
:10B3000027420AD02448AA00111808690969C00414
:10B31000C00E8903B258890F90477F006D1C042D21
:10B32000EED3002C1DDA3046203014214156491C42
:10B3300017D0077DBC06A40E204601F0ABFB8000B1
:10B340003558002D0DD0BE090121A140134AA0009F
:10B3500080180068009A8003800F114202D00228F2
:10B3600002D0F8BD0328FCD1032E05D1022807D056
:10B370000221204603F0A0FD31462046A847F8BD33
:10B380000321F6E700630040006000407C6100405C
:10B3900000050050602E00200065004000070050AE
:10B3A0008307FF22DB0E9A408907090E9940002887
:10B3B0000BDA0007000F0838830808489B001818AC
:10B3C000C36993430B43C3617047830804489B00E0
:10B3D0001B181868904308431860704700ED00E0A0
:10B3E00000E400E010B5064900200860486088606D
:10B3F000C860034940390860486004F015FE10BD7C
:10B400004011014010B504F0A5FD10BD10B506486F
:10B410004068002805D08047002801D000F0E4F9FA
:10B4200010BD02F045FE10BD2429002010B502F029
:10B43000CFFE002805D01F491D484860C8131E498B
:10B4400088611E48018CC9B201290BD1828C120778
:10B4500008D1028D1206120F042A03D1828D120622
:10B46000120F0AD0012921D1818C09071ED1018D2B
:10B470000906090F0A2904D007E0114A0121916049
:10B48000F5E7828D1206120F05D00D290ED1808DA1
:10B490000006000F0AD10B480168012904D00A49AF
:10B4A000016001680129FCD1C021416110BD00008B
:10B4B000DFFF07C000050040006C0040C00F00F037
:10B4C0000006004000EC06407593000010B5042211
:10B4D0000249034802F028FE10BD00008C2F002016
:10B4E0000090004010B504220249034802F01CFEFF
:10B4F00010BD0000982F002000A0004010B504F0FF
:10B50000F9FD10BD30B47446641E2578641CAB424E
:10B5100000D21D46635D5B00E31830BC184702E0B3
:10B5200008C8121F08C1002AFAD1704770470020CE
:10B5300001E001C1121F002AFBD17047F7B584B0AA
:10B540000025168807461580406B1446002813D046
:10B5500003780598032E51D302210170218811220E
:10B56000491C89B2218042542188491C89B221801A
:10B5700043542088401C2080386B00281DD005468D
:10B580002088059902461232B24237D811220A5455
:10B5900020881022401C80B220800A542088401C41
:10B5A00020800F202A5C2388401ECA54228840B283
:10B5B000521C22800028F5DA0025384620300290FF
:10B5C000807B002806D033462246059902F052FEC1
:10B5D000050014D10298407B002806D0324621464F
:10B5E000059800F0BDFF050009D1B878002823D0E8
:10B5F000059886462088001DB04202D90C2007B06D
:10B60000F0BD684679DF0028F9D121880320724611
:10B61000505420881921401C80B220801154208869
:10B620007146401C80B2208041186846008804F0B2
:10B63000F5FD218840182080F878002817D021884F
:10B6400003230A46FB56C91C0598B142D6D80221ED
:10B65000815421880122491C89B2218042542188C9
:10B66000491C89B2218043542088401C208078687E
:10B67000002817D021880023C3560A46C91C059804
:10B68000B142BBD80221815421880A22491C89B2C7
:10B69000218042542188491C89B22180435420884A
:10B6A000401C2080388900280AD000943846019632
:10B6B000062202210830059B04F02FFE05009ED1D2
:10B6C000388A00280AD000943846019607220321C0
:10B6D0001030059B04F021FE050090D1388B002826
:10B6E0000AD0009438460196152214211830059B83
:10B6F00004F013FE050082D1386A002806D03346D4
:10B700002246059901F072FB0500D8D1786A00281D
:10B7100006D033462246059902F02CFF0500CED113
:10B720000298007B002807D0334622463846059908
:10B7300004F0C4F90500C2D13878002807D0334698
:10B7400022463846059902F049FF0500B7D1284640
:10B7500055E700003EB504460420019016480290CB
:10B760006946204601F08EFE002805D01349884224
:10B7700001D000F039F83EBD0F48001F0179C9071C
:10B7800014D00F4A0C214088A7DF00280ED00D49A5
:10B7900088420BD0082809D0891C884206D011287D
:10B7A00004D00949884201D000F01EF8204601F07B
:10B7B00065FE0028DDD13EBD042800204080000049
:10B7C000FFFF00000230000001340000BFF34F8F84
:10B7D00004490348C860BFF34F8F00BFFDE7000076
:10B7E0000400FA0500ED00E00EB500210290009182
:10B7F0006A4601910148FFF7E9FF0000014000009F
:10B80000014B1B6818470000FC2C002038B50C4683
:10B81000A2680C235A43064B09789D58054A126AC0
:10B8200000920246204608302369A84738BD000030
:10B83000802F0020B828002010B5064914230A786C
:10B840005A435118091DFFF7E1FF042004F0E2F903
:10B8500010BD0000B42E002070B5054640680C4EA7
:10B860000179715C0124FF290ED0FE290DD003F06F
:10B8700011FA0146686833460079820008339A5805
:10B88000914202D1FF2131540024204670BD0000B6
:10B890000C290020F7B50546046801980C2148439F
:10B8A00007192320005D1646022801D00820FEBD9E
:10B8B0007868B04206D1E169002945D0686800790E
:10B8C000884741E02846FFF7C7FF002801D0112034
:10B8D000FEBD69681D4A0979FE2050547968002927
:10B8E00002D0A069814210D3002E02D0A069B042DC
:10B8F00005D832462846019903F0BEFE14E03246D0
:10B900002846019903F0F2FE0EE0002E01D0B0426D
:10B9100005D832462846019903F070FF04E032460C
:10B920002846019903F0EEFF2868C06900280BD073
:10B930006868064A007902214000921C821801982A
:10B940001154686803F0DCF90020FEBD0C290020CA
:10B95000FFB581B006460768029D0C2045432320B1
:10B96000C05DEC19002802D0082005B0F0BD002011
:10B9700060600498A0722C480068009028463168E6
:10B980000A30085C002808D00020694648700398F7
:10B9900002F0EAFE002816D101E00120F5E7039845
:10B9A00078510127039938468840049A1F49002A94
:10B9B00001D0C86000E0886000256019083002F0FE
:10B9C00079FF002801D00420CFE76D1CEDB2022DD5
:10B9D000F3D3207A02F0D2FF607A02F0CFFF206822
:10B9E00002F00EFF05467068029903F079F90146EE
:10B9F000207A2A4602F0A2FF206802F001FF0546E5
:10BA00000221706803F06CF90146607A2A4602F060
:10BA100095FFE7727168064A0979002049008A1883
:10BA200002995054A1E70000D00402000005005024
:10BA30000E290020F8B50768054600246A682046EC
:10BA400012790C2148435300174AC61900219A184D
:10BA50001155F17A00290DD029680A30085C0028B8
:10BA600020D00021306802F0EDFE306802F0D2FEF6
:10BA700000207060641C022CE0D369680A4AFF2031
:10BA80000979921E505468680121006803F0CAFACF
:10BA9000686803F00CF9686803F050F90220203759
:10BAA000F870F8BD0121DDE70E290020F7B588B058
:10BAB0000E00054609D02C68204620300690C0783C
:10BAC000002804D008200BB0F0BD0B20FBE703F0EA
:10BAD000D5F8002803D0852801D00420F3E702F030
:10BAE0003BFE002805D102F00DFE002801D0032006
:10BAF000E9E70698FF210170069841700698817069
:10BB0000002007460C2141430B19DF72FF221A72F5
:10BB10005A720022D243401CC0B262500228F1D3B4
:10BB20000027E019203002F0C5FE002809D17F1C53
:10BB3000FFB2022FF5D32046223003F007F8002889
:10BB400003D0284603F01CFDC7E70027B800325891
:10BB5000501C12D0F019037A39462846FFF7F8FE38
:10BB60000490002804D0284603F00AFD0498AAE7B0
:10BB7000002239462846FFF78DFE7F1CFFB2022FB8
:10BB8000E4D300200922244B316901E04908401C1C
:10BB9000994201D99042F9D3204A516892680292A1
:10BBA00001916946087168681D4A0079029001A9EF
:10BBB000686803F0E9F8070004D0284603F0E0FCC9
:10BBC000384680E7686805220068120280183169EB
:10BBD00000690E01C640A661686803F068F8012795
:10BBE0000097042332460221686803F0B5F8022169
:10BBF000686803F07CF80A98E06168680949007990
:10BC0000084A80000D506968FF200979103A5054A5
:10BC10000698C770002056E7FF0F0000D00402000E
:10BC200021F601001C290020094B9B68002B07D03E
:10BC3000002A07D0002805D00068037C002B03D021
:10BC40000820704707207047417442610020704708
:10BC5000EC280020FFB59007002581B014460E4661
:10BC6000002832D11B4F002C31D003F0D3FE0498B2
:10BC700078610320387033461821224600204B4358
:10BC8000BC601834C10089180D704D708E704C6006
:10BC90001C19401C0328F5DBFD607D7001240E4853
:10BCA000BD702405046003211420FFF779FB0B48C5
:10BCB00004600B4C0198A06003211120FFF770FB7A
:10BCC00060683861002005B0F0BD0720FBE7BD606B
:10BCD000FBE70000EC28002080E200E000E100E04B
:10BCE00000150140FEB50D461B49174689680446FC
:10BCF00000292AD0002C28D0052D01D20720FEBD16
:10BD00006069002821D0607C012820D0002604F042
:10BD1000C7FAC0001049019089684018694604F0CC
:10BD2000E9FA002815D0012101700C4944604968E6
:10BD30000830E2C0084901988968411868460078CF
:10BD4000487004F049F90020FEBD0820FEBD2E46D3
:10BD5000DDE70420FEBD0000EC28002000150140B6
:10BD6000F8B5134D0446A96800291CD0002C1AD040
:10BD70006069002817D00026267404F091FAC700E5
:10BD8000A8686946381804F0B5FA00280DD00221D9
:10BD900001704460A868391868460078487004F05B
:10BDA0001BF93046F8BD0820F8BD0420F8BD00009E
:10BDB000EC280020800B01D0002070470120704744
:10BDC000F0B50546007D002493B00E4600280DD046
:10BDD000012001466846103103940173717B417361
:10BDE000817BF92001406846891C81731C2104A8CD
:10BDF000FFF709FA6946087C02210843694608747E
:10BE00002A7DEF21002A02D01022104300E00840D2
:10BE10006A461074059407940894287D002800D081
:10BE200003A8099001270A9410469771304A82802E
:10BE30000094B27B0270F27B42708078F92210404D
:10BE4000F722801C1040EF21084041084900684655
:10BE50008170317B017214210BA8FFF7D4F901A87E
:10BE60000B9068460C908786C486078702A80F90BF
:10BE7000A888AB1D0BAA04A9A2DF002835D1B068A1
:10BE8000002830D0684687711A4981800094317C3F
:10BE9000017000200146684641708078F921084011
:10BEA000F721801C0840EF210840410849006846FE
:10BEB000817011A8B16800F00AFD064614210BA894
:10BEC000FFF7A1F901A80B9068460C908686C486FE
:10BED000068711A80F902A46E8880E320BA9A3DF27
:10BEE000002802D100E0EC81002013B0F0BD00007A
:10BEF000192A00000829000010B5AA21074800F0FF
:10BF000027FA002809D0082807D00549884204D01C
:10BF10000449884201D0FFF767FC10BD682B002060
:10BF20000430000001340000F0B50C4693B01F212E
:10BF30006A461180072600279180002809D0C17821
:10BF400049070DD502A9FFF7F9FA002809D102AD7A
:10BF500001E000251780002C0ED0E078002802D0E8
:10BF6000304613B0F0BD01AA0AA92046FFF7E6FA51
:10BF70000028F6D10AAA02E06846002287806846B7
:10BF80008088C3B268460088C1B2284672DFE8E7FD
:10BF900070B50D4604991646040042D0002E40D0DC
:10BFA000424800224271C360016124223146404868
:10BFB000FFF710F900F0D4F83D4934310846103845
:10BFC00001602031816038215C38FFF71CF9384866
:10BFD000217838380170A1788170E178C17061787A
:10BFE00041706269216942610161E268A168C260D1
:10BFF00081600146E369A269CB618A61616A0029B7
:10C0000019D00146AC310246B83241628A60636A97
:10C010001B880B80616A436A898899800021436A82
:10C0200006E00E2070BD666AB668765C5654491C00
:10C030009E888E42F7D8A16A00291CD01C4AAC32D7
:10C0400011460C398A608162A36A9B888B80A16A41
:10C05000836A098819800021836A04E0A66AB668A9
:10C06000765C5654491C9E888E42F7D82C210A5D76
:10C070000F4918390A73216A002909D00B49143174
:10C080000162226A52884A80216A026A0988118004
:10C090006168002904D00549891D416061684160DB
:10C0A000034829463838FFF73FFF70BD8428002039
:10C0B000582D002010B502881C4C102A17D00021E2
:10C0C000112A1AD0192A11D1807900280ED160794D
:10C0D00001281ED0022822D0032822D0042805D10E
:10C0E0002171E2680846002A00D0904710BD017D0A
:10C0F0000129FBD18088208110BD61708088218951
:10C100008842F9D1012005E021690029F4D088474F
:10C1100010BD022000F02CF80028F5D110BD03203E
:10C12000F8E7032020710420F4E7000084280020B1
:10C1300010B5022801D003280ED1084C2078002821
:10C140000AD000202070607900F012F8002803D097
:10C150002169002900D0884710BD000084280020F4
:10C1600010B507210148FFF74EF810BD9C280020AC
:10C17000F0B5754C87B06071002606A8069602F0EF
:10C18000BDFF0127082806D000286FD10698002897
:10C1900002D02770D4E00696FFF7E2FF6B4D687877
:10C1A000002802D06079012805D0A87800280AD09C
:10C1B0006079022807D1E168002903D0E7700820E0
:10C1C000884700E0E6706079012808D16878002887
:10C1D00009D05D48193002F041FF002803D0607992
:10C1E000022802D00CE002206071A878002805D057
:10C1F0005548193002F032FF002801D10320607148
:10C20000287B002804D16079032801D104206071C3
:10C21000287E002804D16079042801D16671267136
:10C22000E16800290AD06079032801D0042805D1EB
:10C230002878002802D06078002818D0A67018212D
:10C240006846FEF7E0FF68460670019606720396A0
:10C25000607901280FD0022816D03C4E243637468C
:10C260005C3F03281CD004285ED13BE069E0A77046
:10C2700007208847E3E73448183001906846077084
:10C2800046820682277152E02F4818300190684696
:10C29000077029894182A98801820220207146E025
:10C2A000A88A69464882288A08822848243004F0EF
:10C2B000A3F8002805D02878002802D0607800284C
:10C2C00001D003202FE00220694608720420039663
:10C2D000F8701E4800213838FFF726FE002830D1BC
:10C2E000052020E0A88B69460882288C48821748E0
:10C2F000243004F081F8002805D02878002802D0E6
:10C300006078002801D004200DE002206946087200
:10C3100004200396F8700D4800213838FFF704FE1A
:10C3200000280ED1062020716079002803D06846CD
:10C3300073DF002805D1E168002901D02079884702
:10C34000002007B0F0BD000084280020582D0020F8
:10C3500073B586B004002FD06A46217C127F00207E
:10C36000914227D000250126684600950680458029
:10C3700007A80190E188608A6A46A4DF002819D1E5
:10C380006846007F2074608A0D49884216D0207D5F
:10C39000002813D00295039504950595E188684619
:10C3A0000181867241888181049001980590608A9C
:10C3B00002A9A6DF08B070BD0E20FBE70820F9E750
:10C3C000FFFF000038B50D4604001AD0002D18D02C
:10C3D000286820600020C043608228792075FF20F3
:10C3E000207401216846817007490180221D694639
:10C3F0000120A0DF002803D129462046FFF7E0FCFA
:10C4000038BD0E2038BD00000F18000038B50028D8
:10C4100024D0002922D00A88102A1AD0112A1AD032
:10C42000502A1BD1027D002A18D0CA884389891D51
:10C430009A4213D10A8B022A10D10268002A0DD029
:10C44000CB7E8C7E19022143C907C90F07D000217A
:10C4500006E0898801E00021C943418238BD0121FD
:10C460006B4619706946904738BD000070B50546A7
:10C4700001461C220E48FEF7ADFE0E4C002626702B
:10C480002968002906D00822201DFEF7A3FE201DE2
:10C490007ADF02E00748001D7BDF002807D1401E3D
:10C4A00060806670044A00210448FFF7BDFB70BD40
:10C4B000442E0020A42800203D0202009404020023
:10C4C000F8B5214C028800271E4DE689102A15D0A8
:10C4D0001E49112A21D0122A2DD0502A1CD1C288DF
:10C4E000801DB24218D1028B022A15D1C27E837EF2
:10C4F00010021843C007C00F0CD112E08188698078
:10C5000001461048082216310C30FEF763FE6F70AA
:10C51000002E01D100F0B2FCF8BD0020C0436880BD
:10C520006F700868FFF71CFC0028F5D0A16900298E
:10C53000F2D08847F8BD811D024808220C30FEF772
:10C5400049FEE7E7A4280020442E002094040200BE
:10C5500010B502480068FFF703FC10BD9404020008
:10C560007CB5054608880C460930904201D90C205C
:10C570007CBD684671DF0028FAD121880820685404
:10C5800020881B21401C80B220802954208800A9CB
:10C59000401C80B22080401906220131FEF71AFEAD
:10C5A00020886946801D80B220800978002900D04B
:10C5B000012129542088401C208000207CBD0000DF
:10C5C00030B585B00D46040039D0002D37D06868ED
:10C5D000002834D00020C0431A4B20800FCB049396
:10C5E00001AB07C318486946088001A8811E63DFB4
:10C5F000002822D1221D69460120A0DF00281CD17D
:10C6000068468078A071204600F0AEFE002814D164
:10C61000204600F065FE00280FD12946204600F094
:10C62000E5FE002809D16868A062A868002800D04B
:10C63000E062064901200870002005B030BD0E20E0
:10C64000FBE7000054040200301500001828002009
:10C650003EB5002828D0002926D0826A002A23D09F
:10C660000A88102A21D0112A30D0502A1FD0512AEE
:10C670001AD10A460446891D0878022814D1488830
:10C68000238A984210D1907A04280DD006280BD026
:10C69000052809D02046891C02F04CFC002803D054
:10C6A000E16A002900D088473EBD898810E0CB8828
:10C6B00002899342F8D108226B461A708A7F1A7257
:10C6C00020310191826A694690473EBD0021C943ED
:10C6D00001803EBD30B585B0002822D00388134CC0
:10C6E000A34220D0124B1B78002B1CD0104B1025DE
:10C6F0005B1C1D705970002401259A700322694645
:10C700000A820094019402940394028A0A808D7034
:10C710008C8004A90291039300886946A6DF05B0C6
:10C7200030BD0E20FBE70820F9E70000FFFF000006
:10C73000182800207FB504460121684681714A49C6
:10C7400081804A4A01A90120A0DF00287ED12288E9
:10C7500025463C35002A09D044482B46801C0090D1
:10C760004348616800F09EF900287BD12289002AA5
:10C770000AD03E482B460A3000903D48E168401FF1
:10C7800000F090F900286DD1228A002A0AD037489B
:10C790002B461230009036486169001F00F082F984
:10C7A00000285FD1228B002A0AD030482B461A304D
:10C7B00000902F48E169801E00F074F9002851D1E3
:10C7C000228C002A0AD029482B4622300090284883
:10C7D000616AC01E00F066F9002843D1228D002A4C
:10C7E0000AD022482B462A3000902148E16A401E98
:10C7F00000F058F9002835D1216B00290ED002A88D
:10C8000003F072FB19482B4632300090184808227A
:10C8100002A9801F00F046F9002823D1606B002890
:10C820000BD012492B463A31009102790168104829
:10C83000401C00F037F9002814D1A16B002910D05A
:10C8400002A802F03FFC0948423000E00AE00090F4
:10C8500007482B46072202A9273000F023F90028B9
:10C8600000D1002004B070BD0A180000202800206C
:10C87000292A000010B5044600F02CFE21460D4880
:10C88000FFF7C4FD2046FFF71BFE0A48214618307B
:10C89000FFF7DEFE21880848102902D0112905D1B2
:10C8A00001E0A18801E00021C94341802046FFF753
:10C8B00001FC10BD682B00200028002070B5044644
:10C8C0000D460846FEF7AAFC2080656070BD0A7818
:10C8D00002704978417002207047000000B585B0B1
:10C8E000002348221849082003F0E4F9002801D069
:10C8F000FEF77AFF6A460121002003F0C3F9002801
:10C9000001D0FEF771FF0120694608730F4803F05C
:10C91000CDF8002801D0FEF767FF684603F0A8F9BC
:10C92000002801D0FEF760FF094803F097F90028BE
:10C9300001D0FEF759FF074803F0D4F9002801D0D1
:10C94000FEF752FF05B000BD202B0020001E002086
:10C9500075C80100D9FE01001CB5044681786A46FD
:10C960000C4802F0DFFB002812D160781C214843FC
:10C9700009491C2340181A46694602F08DFC0648F6
:10C9800006494030807A80000A5821466846904720
:10C990001CBD00007C280020BC2C00207404020078
:10C9A000F8B5054608206946088001236A461A49F9
:10C9B0002846AADF194800688047B12044DF0028D4
:10C9C00001D0FEF711FF11DF002801D0FEF70CFFA8
:10C9D000134C606913DF002801D0FEF705FF2846DD
:10C9E00000F028FC01210F4A880510600E480268FB
:10C9F0000D4B002080330D468540154204D0C606FD
:10CA0000F60E0D46B5401D60401C2028F3D360692A
:10CA100000F00CF8F8BD0000D82F0020E42800201A
:10CA20000010001080E200E000E100E010B5FEF729
:10CA300061FB10BD0022D243830004490428CA5080
:10CA400002D308182030027470470000602E0020C6
:10CA5000F0B50025ED43002A02D00023042601E0B2
:10CA6000042305260A4C04E09F00E7597F1C04D0EC
:10CA70005B1CB342F8D32846F0BD5DB2261835756D
:10CA80009E00A151002AF6D1E11820310874F2E786
:10CA9000602E002002490918142008567047000033
:10CAA000602E0020FFB58FB01E4615460F0002D144
:10CAB0000020FEF799FE002D02D10020FEF794FE23
:10CAC0001C216846FEF79FFB68460178022001435F
:10CAD0006846017000240194039404940594012194
:10CAE00008A80694817068460F99018407943178EC
:10CAF000017771784177807FF9210840F721801C08
:10CB00000840EF2108404108490068468177142118
:10CB100009A8FEF778FB08A8099007A80A906846BC
:10CB20008585C485058604480D9709AA694600884D
:10CB3000189BA2DF13B0F0BD20280020F8B53E48B6
:10CB40001422017851430C18E0680C2148433A49FB
:10CB50002769CC314018058941890091241D466818
:10CB600002F06EFB01463846FEF70AFB002932D080
:10CB700000200099A2884D436188AE198918CD190B
:10CB800000222E4900280A6109D002F059FB618871
:10CB9000884222D0B54202D1A08800281DD0A068CA
:10CBA00002281AD002F04CFBA188CA19014610468F
:10CBB000FEF7E6FA214C8808E06002F041FB0146EE
:10CBC0002846FEF7DDFA002911D00020B5422FD00B
:10CBD00000280ED02CE00120CBE702F031FB01460B
:10CBE0003846FEF7CDFA15494861032021E00120BF
:10CBF000ECE7ADB2B7B202F023FB01463846FEF7D0
:10CC0000BFFA064602F01CFB01462846FEF7B8FABA
:10CC1000864201D1781B09E002F012FB064602F0C1
:10CC20000FFB01462846FEF7ABFA701A8008206118
:10CC3000022002F0EFFFF8BDB42E0020B82800203B
:10CC400010B50748142201785143081800790428C8
:10CC500002D000F059F810BD012002F0DBFF10BD3A
:10CC6000B42E002010B50B48142201785143081847
:10CC7000094AC18811620079012806D0032801D031
:10CC8000042801D1FFF75AFF10BD012002F0C2FFB6
:10CC900010BD0000B42E0020B828002014225043FC
:10CCA000054A002180180171C18001220161C26022
:10CCB0004161018170470000B42E0020F8B5104C8E
:10CCC000069E65780A2D19D027787D190A2D00D384
:10CCD0000A3D14277D432D1928716A6103C9296112
:10CCE000E860EB802E816078401C60700548007819
:10CCF000002801D1FFF7B6FF0020F8BD0420F8BDE1
:10CD0000B42E0020B828002010B50D4C1421207836
:10CD1000484301190020091DFEF778FD2078FFF730
:10CD2000BDFF6078401E60702078401CC0B220704B
:10CD30000A2801D100202070002002F06BFF10BDF6
:10CD4000B42E0020F8B52348C16800293ED00E68F3
:10CD500021494C680769C078E11B0D022D0AED1CC2
:10CD6000002814D101201D4A000450601B4A403A9B
:10CD700050601B49400008601A4908601A490120A8
:10CD800008602F20FEF7D0F912490120C870B54283
:10CD900000D23546E81900020F4B000A40331860F4
:10CDA0000D4A5168001B091B0902090A0002000A0A
:10CDB000C91C814209D9506818602F20FEF7B4F9C8
:10CDC00001200749400480390860F8BD02F022FEC6
:10CDD000F8BD0000EC280020001501404013014080
:10CDE00080E200E000E100E000100140F8B50646F6
:10CDF000108814468446801D0D46984201D90C20A7
:10CE0000F8BD32880720062AFAD31927FF01184BEC
:10CE1000BA4201D99A42F3D171880629F0D3B942B6
:10CE200001D99942ECD19A4203D0994201D08A4269
:10CE3000E6D805216046295420881221401C80B282
:10CE4000208029542088401C80B2208041193088DD
:10CE500003F0E4F92188401880B2208041197088DD
:10CE600003F0DCF92188401820800020F8BD000084
:10CE7000FFFF000010B5FEF7B7FC10BDF8B516486F
:10CE800001F098F9144D00260C3D144C002807D0F1
:10CE9000616900291CD001206A461070684616E0BE
:10CEA0002878002805D06169002911D068460670ED
:10CEB0000DE0687800280DD0A168094800220068BC
:10CEC000FEF710FF002803D0A169002900D0884791
:10CED0002E70F8BD6168F0E7B0280020442E0020D5
:10CEE0009404020070B5094B04469E7A0820002580
:10CEF0000E4207D00648844202D01889A04202D1CF
:10CF00000020156070BD052070BD0000F02C0020D1
:10CF1000FFFF00000C214843064910B501224018CC
:10CF20008272911E0181FF21C1720721FEF76BF908
:10CF300010BD0000F02C00200E494868C005C00D4F
:10CF400016D0103840B2002807DA0207120F083A4C
:10CF5000920892005118C96904E08108064A8900C4
:10CF6000891809688007C00EC1400806800F704705
:10CF70000420704700ED00E000E400E010B5134C21
:10CF8000207900071FD46069401C6061E0680028B8
:10CF900001D0042004E001F03FF9002803D0022072
:10CFA00002F090FF10BD2069002809D06068C10719
:10CFB00001D00320F4E70121084360600020EFE77F
:10CFC000FFF73EFE10BD02F071FF10BDB828002033
:10CFD00010B5084841680A0708D48A0702D501221B
:10CFE00011434160022002F06DFF10BD02F05EFFB0
:10CFF00010BD0000B8280020FEB50E46044681781A
:10D000006A46234802F08EF8002827D160780C2168
:10D01000204F4843C019807A400620D4022E1ED0EB
:10D02000012E1ED01C4DA0781C2148431949002315
:10D03000F83941181C226846A847002813D0022E50
:10D040000CD020780C21484312490C314018807ACA
:10D05000124980000A58214668469047FEBD104D8F
:10D06000E1E7104DDFE7022EF8D060780C2148434D
:10D07000C019817ABF221140817260781C21484317
:10D080000449343941181C231A466846A847D8E792
:10D090007C280020F02C002031FE010064040200F6
:10D0A000D9F40100FDF3010070B50546114A12489C
:10D0B00000241C2363431B189B7EFF2B04D0641C9D
:10D0C000072CF6D3104670BD0A78022A09D01C221C
:10D0D00062431018FD22827607221030FEF77AF89C
:10D0E00004E01C2161430818FE2181762C70002287
:10D0F000E8E7000043800000F82B0020F7B5052585
:10D100000F4F06460024002E0AD01C206043C01991
:10D11000072231461030FEF788F8002807D00AE0D1
:10D120001C206043C019018B0298814203D10198F1
:10D130000025046002E0641C072CE4D32846FEBDF1
:10D14000F82B00207CB5054681B26A46074801F0FD
:10D15000E9FF040008D15421684602F00DF80400EC
:10D1600002D1284601F086FF20467CBD7C280020A5
:10D1700070B505460C46100001D0FEF735FB20784F
:10D18000152802D12846FEF7E5FA002070BD000000
:10D190001FB56946087302F059F8002801D0FEF760
:10D1A00023FB03A800F00AFC002801D0FEF71CFBBB
:10D1B00001A805210130FEF726F8694648790122C9
:10D1C0001043E1210840DF210C30084069464871D6
:10D1D000072088711020C871054800900A71054821
:10D1E00000F03EFD002801D0FEF7FEFA1FBD000052
:10D1F00071D101000028002001B50449684600F003
:10D2000049F9002801D0FEF7EFFA08BDE828002010
:10D2100010B50978002908D003220121FFF75AFA36
:10D22000002801D0FEF7E0FA10BD0088FFF7B8FB38
:10D2300010BD000010B58AB000242349009400F00E
:10D240008BFB002813D101A91F4800F02DFB0028FB
:10D250000FD01E491C4800F013FC002801D0FEF737
:10D26000C3FA1A4800DF002801D0FEF7BDFA0AB061
:10D2700010BD0599072215481031FDF7ABFF134883
:10D280001022C01D0599FDF7A5FF10481122183086
:10D290000199FDF79FFF0D4801990A222A301231AA
:10D2A000FDF798FF094800DF002801D0FEF79CFA3F
:10D2B00001200090042008906846099007A907946F
:10D2C000014800F0E3F8CEE7E8280020A42F002072
:10D2D000704700000149086070470000E428002002
:10D2E00030B58FB005461C216846FDF78CFF6946B6
:10D2F000087808210843102210436946087000246A
:10D3000001940394049405940694A87908A988705C
:10D31000144869460884601C00070794000F0C77C6
:10D3200010304877887FF9210840F721801C084099
:10D3300010430121084369468877142109A8FDF7A5
:10D3400062FF08A8099007A80A9069468C851720F3
:10D35000CC8508860D942B46A888103309AAA2DF35
:10D360000FB030BD3115000030B58FB005461C211F
:10D370006846FDF748FF6946087804210843694676
:10D380000870002401940394049405940694A879E9
:10D3900008A98870144869460884601C000707942F
:10D3A000000F0C77103048778A7FF9200240F72071
:10D3B000921C0240EF200240012002438A77142190
:10D3C00009A8FDF720FF08A8099007A80A90694658
:10D3D0008C851420CC8508860D942B46A8880833AC
:10D3E00009AAA2DF0FB030BD32150000F0B58FB032
:10D3F0000F4605461C216846FDF705FF6846017883
:10D40000022631430170002401940394049405948E
:10D410000694A97908A88170174968460184601CA0
:10D420000107090F68461031079401770020014673
:10D4300068464177817FF9200140F720891C01402F
:10D44000EF2001400120014368468177142109A89B
:10D45000FDF7D9FE08A8099007A80A9068468685B6
:10D46000C48506860D972B46A888203309AA6946ED
:10D47000A2DF0FB0F0BD0000341500000048704777
:10D48000918000000048704791800000004870477C
:10D49000918000000C4A13780C4A002B11D0931D88
:10D4A000002905D0002803D00078002809D101E028
:10D4B00018467047064B1B68002B02D008700020EE
:10D4C00070471046704700006C280020088000005C
:10D4D000FC2C0020F0B5054693B000200290FF24FC
:10D4E000EC480E940078002849D0EB4F38680028AB
:10D4F00045D001A800F054FA002801D0FEF774F9D5
:10D50000281D05902A2069460883FF20002688717F
:10D510000E710396E04C28880C3C10280ED0A88889
:10D5200003AA0221FFF7DEFC002807D103980C2193
:10D5300041430919CA7A69468A71487128881322B9
:10D5400017287CD00FDC10281BD0112853D01328AB
:10D5500076D0142813D103980C2148430019C07ABF
:10D56000FF2871D08DE0CD4918286BD01C286AD0D7
:10D57000522804D1B87A8000095801A8884713B00E
:10D58000F0BDC74F03AA01213846FFF7ABFC0028C6
:10D59000F5D103990C20484302220019827211230D
:10D5A0006A4613745171A98801810722A91DFDF7EC
:10D5B00011FE687DC10707D04108B6480830405CBD
:10D5C000FF2808D00E9006E03A460EA9A81DFFF7E6
:10D5D00095FD00280ED103990C22514309190E988C
:10D5E000C8728A7A08231A438A726946887101A828
:10D5F000FFF7B2F939E103980C2148430119887A01
:10D60000FD2210408872010706D5C0090DD0002107
:10D6100001A8FFF7F1FC08E068468079FF2804D0F4
:10D6200001F028FDFF206946887103980C225043C1
:10D6300010210019817212206946087415E17FE0FB
:10D6400030E001E0D5E00EE1EA890EA90020FFF705
:10D6500055FD00280ED103980C22504300190E9955
:10D66000C172837A0822134383726846817101A8CC
:10D67000FFF772F903980C2148430019C07AFF287C
:10D6800006D003981C214843834940394018029032
:10D6900003981C21484383494218A8880023029913
:10D6A00082DF6CE768460274039B0C205843011923
:10D6B000887A042210438872C87AFF2830D0162056
:10D6C000694608741820434373480E2124381818FB
:10D6D0000830FDF798FD03980C2148430019817A22
:10D6E00040221143817203990C2200204A430A9080
:10D6F0001219D27A1C235A436A4B0C90D2180B92FF
:10D700001C2251431A46C432891807910890099087
:10D710003A1DA88807AB00217FDF0028C1D1A4E013
:10D720000EA8FFF7C1FC002801D00646DBE76946DA
:10D730000E98887103990C2251430919C872D2E7D7
:10D74000787A400840007872039A0C20944642434D
:10D7500011198B7AFB2003408B7214206F463874AA
:10D76000A879002804D0C87AFFF7ECFCAE797CE0F9
:10D77000E879400779D5B879FF2876D008273B4368
:10D780008B72EB7A9B0708D51C2503466B43454DEE
:10D790005B199D7E6D086D009D76CB7AFF2B64D062
:10D7A000A25C022A10D01C2250433E4D0722401991
:10D7B0001030FDF70FFD684680791C214843401961
:10D7C000817EFD2211400EE061461C225143324A07
:10D7D000403A89184A8A1C2148433249401802833A
:10D7E000817E490849008176012101A8FFF704FCE8
:10D7F0003BE0A8790209012A23D10007000F012884
:10D800001FD103980C2242431219927A120718D59D
:10D81000182148432049243940180E210830FDF7CB
:10D82000F2FC16206946087403980C21484301193C
:10D83000887A602210438872787A022108437872CD
:10D840000FE003980C2250430019827A80231A4378
:10D85000827215206A461074B87A8000095801A8AF
:10D860008847002601E068460274324604A901A8F0
:10D87000FDF7C6FF6846007C122800D07FE60398BB
:10D880000C2141430919897A0129F7D0FFF742FB9E
:10D8900075E600006C280020FC2C002084040200A7
:10D8A000FFFF0000F82B0020F0B5064626480C4686
:10D8B0000178264889B000293FD0811D002E3ED036
:10D8C000002C3CD03178002937D121490025096846
:10D8D000002932D0B078072833D21C211D4F48438D
:10D8E000C019807EFF282CD0E560B0786561484380
:10D8F000C01920611648A5600C3060606846206041
:10D900001148B17807AA103001F00CFC002814D19E
:10D910001C231A4607A9684601F0BEFC00280CD15A
:10D92000E560B1781C225143C9196561216108493C
:10D93000A5600C3161606946216009B0F0BD084600
:10D94000FBE702480830F8E76C2800200880000058
:10D95000FC2C0020F82B002030B50446002903D011
:10D960000878002814D101E00B4830BD0B48002393
:10D97000006800280CD0094AFF2088700C3A1589ED
:10D980000520A542F1D14B70D07A8870002030BDBF
:10D990000148801F30BD00000E800000FC2C0020DC
:10D9A000002806D0FF21017041708170C1700020F5
:10D9B00070470148704700000E800000F0B585B048
:10D9C000040036D029480025056045728572284636
:10D9D000FFF7A0FA254818212438FDF714FC00268B
:10D9E000FF27304601F046FB21488755761C072E5D
:10D9F000F7D35421684681800721C1801D481C4906
:10DA000000900831684601F09BFC00280FD1184EA9
:10DA10000120083E3070207800280CD069468888A4
:10DA2000C988484381B23046103001F0A5FB05B0EB
:10DA3000F0BD1148FBE7114F00240D48A1B202AA26
:10DA4000083001F06FFB002809D11C206043C01989
:10DA500000231C2202A901F01FFC002801D0357010
:10DA6000E5E7641C072CE8D3E1E70000FC2C00206C
:10DA70007428002001DB01000E800000F82B00203C
:10DA80000B4610B51A491B4A0978002920D0911D70
:10DA9000002805D0002B03D00178002918D101E01F
:10DAA000084610BD14490968002911D0114A81782F
:10DAB000D21EFF290ED01C20414310480918887E31
:10DAC000800705D4072218461031FDF783FB00229A
:10DAD000104610BD4078FF28FAD00C214843064973
:10DAE0000C394118887A8007F2D507221846ECE7EE
:10DAF0006C28002008800000FC2C0020F82B00205F
:10DB0000FFB554488FB00068189F1E4600284FD0BC
:10DB1000542F4DD86846FFF743FF002801D0FDF78A
:10DB200063FE002468460470047125460597069636
:10DB3000A9B20DAA484801F0F5FA002806D108223A
:10DB40000DA90F98FDF771FB002819D06D1C072D4A
:10DB5000EED3684680780790FF2829D010982025BA
:10DB6000032810D03D481C21301AFDF709FB01277E
:10DB700007282DD204A80290119800281AD021E07D
:10DB800068468570E5E7542F03D040206946087148
:10DB900001E0684605716946087903210843694632
:10DBA000087104A8029001A96846119AFDF728FEA1
:10DBB00013B0F0BD079938468840274910394968A5
:10DBC0000842F5D0079802F02FFB6846057138E04F
:10DBD00020481C214038301AFDF7D2FA00280BD01B
:10DBE0001C4D1821243D701BFDF7CAFA00281AD0DD
:10DBF000402069460871DBE704A802906846057179
:10DC0000447014480A940C300B904C3807906846C6
:10DC100080781C21484311494018089007A80690B5
:10DC2000182005900DE03021684601714470C770DE
:10DC300008480C38807A800703D428461821FDF75D
:10DC4000E2FA109869460228087901D00221A5E776
:10DC50003843A5E7FC2C00207C280020F82B00206E
:10DC600070B5064618480D46007800280ED01749B2
:10DC7000002E0ED0002D0CD02868002809D0144C9E
:10DC80002168002907D011480A3870BD0F48801F4D
:10DC900070BD084670BD20600522691D201DFDF77E
:10DCA00099FA2879A072207A02214008400008439E
:10DCB000FB2210402072E0790123184308431040F2
:10DCC000E0710020307070BD6C2800200E800000D4
:10DCD000FC2C002010B50E4900234A788C78A24213
:10DCE00012D0521CD2B24A70022A00D14B704A782C
:10DCF000074B920018339A58026008691018000206
:10DD0000000A0861012010BD0360002010BD000062
:10DD1000EC28002010B5002803D0112802D0FDF710
:10DD20008BFD10BD0248082241681143416010BDBF
:10DD3000B828002010B51C4C2178204640680129E5
:10DD400006D0022929D0032912D1000717D513E0E4
:10DD5000000711D415481422017851430818C188CE
:10DD6000A28B891A0904090CC18002D002F062F862
:10DD700010BDFEF7C9FF10BD00F0F0FB10BD6069DB
:10DD8000401C606100F048FA002803D0207801F0C0
:10DD900041FF10BDFEF754FF10BD607804498000BC
:10DDA0000858804710BD0000B8280020B42E00207D
:10DDB000AC04020010B528DFFFF7ACFF10BD10B5B2
:10DDC00029DFFFF7A7FF10BD0EB5112069460872C5
:10DDD000082211A102A87CDF002801D0FDF704FD74
:10DDE000002078DF002801D0FDF7FEFC0020FF2294
:10DDF00000904132694601900A804122D2004A8057
:10DE00008880FF209130C88068467ADF002801D0E2
:10DE1000FDF7EAFC0EBD0000436F6D6D706173731A
:10DE2000000000000020704700207047002070476D
:10DE3000F8B506464078182104464C4324490C2284
:10DE400050436118224A00254B6818328018AE46AC
:10DE50002F469C46002B0CD0827A1346D20908D05C
:10DE60005A0606D40D461A4A614689B21759083532
:10DE70008E46174C008918343B4672462946A9DF66
:10DE80000B2819D0002800D01248012F13D1707828
:10DE90000C214843001900890F4AA7DF00280AD047
:10DEA0000E49884212D0082810D0891C88420DD013
:10DEB00011280BD00020F8BD70780C2148430123B5
:10DEC0000019008972462946A9DFE0E70148F8BD3C
:10DED000D82C002041800000FFFF0000023000002D
:10DEE00070B50C46014660781822084D5043401921
:10DEF000382301F0D1F9002807D161781822514365
:10DF000049194A68521C00D14A6070BDD82C0020C3
:10DF1000F3B585B00D460E206946088268780C215D
:10DF200003274843224E3B468019008904AA6946CC
:10DF3000AADF002838D1687818214843741A0019DC
:10DF400069460A8A0830FDF770F90028687807D01A
:10DF5000182148430119496800290DD0154E0CE0DD
:10DF60000C2141438919897A89071DD41821484316
:10DF70000019FDF748F917E00F4E27506846028A4E
:10DF800068781821484300194260687848430019AE
:10DF900069460830FDF71EF96878182148430119D1
:10DFA000382318220598B047002007B0F0BD0000C4
:10DFB000F02C0020D9F40100FDF3010010B5FFF7AB
:10DFC00037FF10BD10B5FFF78BFF10BD10B5FFF781
:10DFD0009FFF10BD70B51B4C207900072ED41A4846
:10DFE0001422017851430D182E6901F029F90146D8
:10DFF000E8882A89761E80188019FDF7C1F8216902
:10E000000025002909D06169814206D1E560606878
:10E0100001210843606000200AE000F0FDF80028BC
:10E0200002D00220E56003E02069002803D003202D
:10E0300001F048FF70BDFEF703FE70BD01F036FF32
:10E0400070BD0000B8280020B42E002000B58BB0B1
:10E050001422154905A8FDF7BDF8134914221431FF
:10E060006846FDF7B7F80120694648720E480F4A26
:10E0700005A91038FDF71AFD002801D0FDF7B4FB03
:10E0800009480A4A69460838FDF710FD002801D002
:10E09000FDF7AAFB04481038FDF7CCFC024808380D
:10E0A000FDF7C8FC0BB000BD2404020015F601000A
:10E0B000F8B51C4C2078002833D02069002807D000
:10E0C0000026E068002805D00025002E04D011E0CD
:10E0D0000126F6E70125F8E7684652DF052804D057
:10E0E000002804D0FDF780FB04E0012602E021694E
:10E0F00000988847002D10D1608869460880A06884
:10E1000061DF052804D0002804D0FDF76DFB04E092
:10E11000012502E0E168A0688847002EDCD0002DD0
:10E12000D3D0F8BD24290020F7B5002516460446B3
:10E130002F4616E0A80001210904A940FF30413014
:10E140002258002A0BD003221202A21852680A4257
:10E1500005D02750019A01991268496890476D1CB3
:10E16000EDB2B542E6D3FEBD0121814003484068CF
:10E17000014201D00120704700207047DC280020B8
:10E180000121814003484078014201D001207047BD
:10E1900000207047DC280020014610B5012088408F
:10E1A000FDF708FE10BD01218140880700D0012045
:10E1B00070470000418805480288914204D3408896
:10E1C000814201D80120704700207047A828002014
:10E1D0001048018CC9B2012917D1818C090714D1CB
:10E1E000018D09060A0F03D1828D1206120F0ED07F
:10E1F000090F012903D1828D1206120F07D00329BE
:10E2000003D1808D0006000F01D00020704701204F
:10E2100070470000C00F00F070B50E48142201785E
:10E2200051430C18256901F00BF80146E08822895A
:10E230006D1E80184019FCF7A3FF07494A69824206
:10E2400006D3824202D10869002801D0002070BDA7
:10E25000012070BDB42E0020B8280020012181408B
:10E26000880400D001207047800701D0002070474B
:10E270000120704730B51588EC1C9C4201D90C2058
:10E2800030BD02244C5513881C255B1C9BB21380A7
:10E29000CD5413885B1C9BB21380012807D0022841
:10E2A00007D0032807D0042807D0072030BD00205E
:10E2B00004E0012002E0CC5401E00320C85410889F
:10E2C000401C1080002030BDF8B52C49C8680A6990
:10E2D0000C780F7989688646944600913EE0009953
:10E2E000E20055182A7836E0182353436968521C17
:10E2F000C918AB78D2B2934200D100220B78022B1E
:10E3000002D0032B27D123E04E680346014603E0E9
:10E31000B14204D00B46C96900291CD0F8E7002996
:10E3200019D08B4208D1C069002805D1144F0126AD
:10E33000BE600026B44601270E68C969D96100296C
:10E3400009D00B689B190B6005E00174C06900E0FF
:10E3500000210028F9D169789142C5D12146641E77
:10E36000E4B20029BBD1054962460A61C8600F7159
:10E37000704501D00120F8BD0020F8BDEC28002038
:10E3800000100140F8B5044631480026C1680091EC
:10E3900007784EE02E48F90080680D1843E0002C05
:10E3A00002D02046E4691FE02878182141436A68BA
:10E3B000401CC0B251182870AA78904200D12E702B
:10E3C0000A784868012A30D1027C002A2DD18A6857
:10E3D0004260CA6882600A69C260496981611C49F9
:10E3E0000979002900D04660194943680A699C46AA
:10E3F000991A0902174B090A994202D282688918B0
:10E4000007E06146511A09028268090A8A4202D964
:10E41000511A016000E006604660012186600174C7
:10E42000C66101F0E1FD002CB9D1287869788842F5
:10E43000BAD138467F1EFFB20028ABD10448C1686C
:10E440000098814201D00120F8BD0020F8BD0000F5
:10E45000EC280020FFFF7F00002398B0384A0521F8
:10E460001846FDF7F7FB002801D0FDF7BDF9354A46
:10E4700001213548FDF7D8FB002801D0FDF7B4F99C
:10E48000FEF72CFA2046FEF783FEFFF79DFC3821AD
:10E4900001A8FCF7B8FE02206946087101248C71BE
:10E4A0000622CA7188822948069024210FA8FCF709
:10E4B000AAFE10A90C72A02000241390B42000948E
:10E4C0001490234B0FAA214601A8FDF761FD0028F7
:10E4D00001D0FDF789F901F039FB1C216846FCF7F2
:10E4E00092FE0520C00301900F20000402900094CA
:10E4F000032168460173C4810474164805901648C8
:10E5000006906846FDF7B2FF002801D0FDF76CF9D0
:10E51000FFF79CFD0C480121002209040068FDF76B
:10E52000E1FB002801D0FDF75FF90320FDF720FE95
:10E5300000E048DF0028FCD0FDF756F9F9E70000BD
:10E5400058290020F9BE0100080402000828002014
:10E5500007EF010015EF010075CE010010B504486A
:10E560000822416891434160007801F053FB10BDDF
:10E57000B828002070B5144682880E4605462088CB
:10E58000111D4118921C994201D8FE2A01D90C2074
:10E5900070BD521C32542088FF21401C80B2208064
:10E5A00031542088401C80B220808119288801F0D5
:10E5B00035FE2188401880B22080AA88002A09D020
:10E5C000A968002908D08019FCF704FE2088A988D2
:10E5D00040182080002070BD072070BDF8B50F46A0
:10E5E000017814460546012902D16878002806D032
:10E5F0002088821C9A422DD8012902D006E00720EB
:10E60000F8BD69784118891C994223D8181A801ED0
:10E6100086B2684606802188B81C081869467DDFE6
:10E620000028EDD12878022805D169460988B14231
:10E6300001D809210AE00821012805D16878B042F3
:10E6400002D86A46108001E0684606806846008865
:10E65000FE2801D90C20F8BD2288401CB85420881F
:10E66000401C80B22080395420886946401C20809C
:10E670000988401820800020F8BD00207047002045
:10E68000704700207047000031B5054C04E0401E83
:10E6900000902046FCF71EFD00980028F7D138BDF9
:10E6A000E70300008207D30EFF229A408907090E74
:10E6B00010B5994000280BDA03071B0F083B9C0894
:10E6C0000C4BA400E318DC6994430C43DC6107E0C5
:10E6D0008408094BA400E418236893430B43236088
:10E6E000C106C90E01208840044908600449086039
:10E6F00010BD000000ED00E000E400E080E200E07A
:10E7000000E100E070B5124D687D002801D00820BE
:10E7100070BD0F4900202039421E0B18401CC0B2AA
:10E720001A752028F9D300242046FEF783F9641CCB
:10E73000E4B2052CF8D303210620FFF7B3FF012034
:10E740000449C007486001206875002070BD0000C2
:10E75000802E0020006300400248407D002800D049
:10E7600001207047802E0020FEB5044620480D464B
:10E770000019142141560026491C01D0082633E017
:10E78000A97800291DD0012200212046FEF760F95A
:10E79000411C14D0830017482A7818186978036937
:10E7A000154F3B4003610369E706FF0C9207920B8C
:10E7B000C907C90A3B430A431343036104E0042623
:10E7C00012E00121C94301756A780120A0400B497C
:10E7D000012A0BD0C860002100910B460122019153
:10E7E0002046114600F04CFB3046FEBD8860F2E743
:10E7F000602E002000650040FFE0ECFF00050050A7
:10E8000010B5FEF747F980060149000E401810BD0B
:10E810000060004009490918142008568100084882
:10E8200009180869032210431F22120202430A61D9
:10E8300000BF00BF00BF086170470000602E0020CD
:10E8400000650040002900D00121074A1218142059
:10E850001056820005481218106901231B059843C1
:10E860000905084310617047602E002000650040D4
:10E8700010B5044600F01AFC00280DD02046FEF723
:10E8800009F9C0B2FEF7D6F82046FEF703F9074AA9
:10E89000002180008018016105490020C04309194A
:10E8A0000875204600F0FEFA10BD0000006500402B
:10E8B000602E0020F1B5042082B01E4E002500908D
:10E8C000002069460871FEF737FB0746012807D08C
:10E8D00001A836DF02280DD0002801D0FCF784FF04
:10E8E0000124AC4034420FD02846FFF73DFC0028FD
:10E8F00002D009E072B6F3E70F4841682143416056
:10E900000298057000200090012F09D062B6684679
:10E91000007937DF022803D0002801D0FCF764FF1C
:10E920000098002804D06D1CA643EDB2002EC7D17C
:10E93000FEBD0000FF3F0000DC28002070B514463B
:10E940000D00064611D0002C0FD0FFF787FC0028E1
:10E950000DD03046FFF708FC00280AD00648F10029
:10E96000081805614461002070BD0E2070BD0720AD
:10E9700070BD082070BD000000F5014010B50446D0
:10E98000FFF70AFC00280FD02046FFF767FC00289D
:10E9900004D02046FFF7E8FB002807D001200449F7
:10E9A000A0408860002010BD072010BD082010BDC9
:10E9B00000F5014010B50446FFF7EEFB00280FD02C
:10E9C0002046FFF74BFC002804D02046FFF7CCFB85
:10E9D000002807D001200449A0404860002010BD55
:10E9E000072010BD082010BD00F5014038B50546D0
:10E9F000FFF734FC002825D001241448AC40846083
:10EA0000002069460870FEF797FA0546012807D0EE
:10EA1000684636DF022817D0002801D0FCF7E4FE54
:10EA20000B484168A1434160012D09D062B6684698
:10EA3000007837DF022803D0002801D0FCF7D4FE8D
:10EA4000002038BD072038BD72B6E9E700F5014067
:10EA5000DC280020F8B506460C460846FFF7A3FB65
:10EA600000282FD02046FFF78BFB002828D0304607
:10EA7000FDF7A0F9002825D0002069460870FEF7B0
:10EA80005BFA0546012807D0684636DF02281BD00E
:10EA9000002801D0FCF7A8FE0C48A1000818016866
:10EAA00031430160012D09D062B66846007837DF36
:10EAB000022803D0002801D0FCF796FE0020F8BD04
:10EAC0000820F8BD0720F8BD72B6E5E700F8014060
:10EAD000F8B506460C460846FFF765FB00282FD020
:10EAE0002046FFF74DFB002828D03046FDF762F99D
:10EAF000002825D0002069460870FEF71DFA05465B
:10EB0000012807D0684636DF02281BD0002801D034
:10EB1000FCF76AFE0C48A10008180168B1430160C7
:10EB2000012D09D062B66846007837DF022803D08D
:10EB3000002801D0FCF758FE0020F8BD0820F8BDE1
:10EB40000720F8BD72B6E5E700F80140F1B50420F2
:10EB500082B0032600250090002069460871FEF768
:10EB6000EBF90746012807D001A836DF02280DD0AF
:10EB7000002801D0FCF738FE0124AC40344210D00C
:10EB80002846FFF7FDFA002802D00AE072B6F3E744
:10EB90000E482146427811434170029805700020CA
:10EBA0000090012F09D062B66846007937DF02284D
:10EBB00003D0002801D0FCF717FE0098002804D0ED
:10EBC0006D1CA643EDB2002EC6D1FEBDDC28002090
:10EBD00010B50446FFF7E7FA00280BD02046FFF7F0
:10EBE000CFFA002808D0054A0120E1008918086002
:10EBF000002010BD072010BD082010BD00F001400E
:10EC0000F8B50446FFF7CFFA00282CD02046FFF7CE
:10EC1000B7FA002829D017490126E00040184660BD
:10EC2000002069460870FEF787F90546012807D0DD
:10EC3000684636DF02281AD0002801D0FCF7D4FD40
:10EC40000D48A6404178B1434170012D09D062B60C
:10EC50006846007837DF022803D0002801D0FCF78F
:10EC6000C3FD0020F8BD0720F8BD0820F8BD72B62E
:10EC7000E6E7000000F00140DC28002004480178AD
:10EC8000002901D0852070470121017000207047C4
:10EC9000DC2800201522006889009201891840585C
:10ECA0007047026888004030C0B210187047006892
:10ECB0000121C160704770B5012424048C400326F3
:10ECC00005683602AD19002B01D06C6000E0AC6025
:10ECD000006889000818052109024018026470BD07
:10ECE00002688800FF30413080B210187047026817
:10ECF00001200004884003210902511888607047F0
:10ED00008A0010B5FF324132036892B200249C5051
:10ED1000026801200004884003210902511848605C
:10ED200010BD000002680121116100790C225043DE
:10ED3000014A8018017270478C2F0020016801225F
:10ED40000A6000790C225043024A022180180172A5
:10ED5000704700008C2F0020F0B5FF2502350468B5
:10ED60008D40FF34FF340234059E2768AF4327608F
:10ED70000468FF34FF34023425681D4325603346A0
:10ED8000FFF799FFF0BD000070B504460D4600790D
:10ED90000C21264B4143CE18317A002901D008209E
:10EDA00070BD002A02D0002D02D004E0072070BD03
:10EDB0001F49C00045183260686870600020034633
:10EDC00006E08100FF31226841315350401CC0B23F
:10EDD00061798142F5D82068E978000B40B2FFF7ED
:10EDE00061FC05202168000209186A784B68D20787
:10EDF0005B085B00D20F13434B602268A97812189E
:10EE0000936889079B089B00890F0B4393602168D7
:10EE10002A7808180169120709090901120F11431C
:10EE2000016101203072002070BD00008C2F002095
:10EE3000C004020010B503460068C103C90E0120DA
:10EE400088400D49086019680020FF31C043FF3138
:10EE500002310A6800240C60032219681202891822
:10EE600088601846FFF75EFF18790C214843034974
:10EE70004018047210BD000080E100E08C2F0020DB
:10EE800030B552000A439900039C0A432102049DB5
:10EE90000A4329040A43024980004018026030BD39
:10EEA000000700501CB5002100910B460122019182
:10EEB000FFF7E6FF1CBD000082000648101802683C
:10EEC00003231B049A430260026809040A43026098
:10EED00070470000000700500349401800680128EF
:10EEE00000D000207047000000600040405800281B
:10EEF00000D00120704703221202801840680840A9
:10EF000000D00120704710B5002802D10320FDF782
:10EF10002FF910BD10B50078002807D104483B2117
:10EF2000408876DF002801D0FCF75EFC10BD0000B1
:10EF300000280020F0B58BB00C460546022168463B
:10EF4000017301268674E28A8282228BC282204665
:10EF50001A3000270690089768460184478407A85E
:10EF60000990A98A288808AAA5DF002804D0E96AA0
:10EF7000002919D0884717E06846808BC007C00F6A
:10EF800012D068460782288803A9A8DF002812D17A
:10EF9000A17E20461B300B00FCF7B4FA09420F1C7F
:10EFA00022242729402B4200FF20FE306946088298
:10EFB000288803A9A8DF0BB0F0BD6A4617700BE0E4
:10EFC00006221BE069460E720190AA6A2846904705
:10EFD0000020F0E76A461670228B022AF2D2EFE791
:10EFE000022000E00320694614E00420FBE705202E
:10EFF000F9E7218B032905D2032208212846FDF7D2
:10F0000069FBD8E741780278080210436946888096
:10F0100002D006200870D8E70720FBE70920E2E7C6
:10F020000322EBE7074A904201D1074803E0074A71
:10F03000904202D10648C1607047064A9042FBD117
:10F040000548F8E700800040008C00400090004038
:10F05000009C004000A0004000AC00400021425C49
:10F06000002A01D001207047491C0629F7D300204F
:10F070007047000070B505461C200B4968434418D2
:10F08000204611300621FCF7BEF820461021FCF77F
:10F09000BAF8FF2121740020A176C04320832846BE
:10F0A00001F0C2F870BD0000F82B002004490818D8
:10F0B00014214156042901D20120704700207047D5
:10F0C000602E002070B50D00044602D10020FCF730
:10F0D0008BFB002C02D10020FCF786FB28782070E7
:10F0E00069886170090AA170A988E170090A217113
:10F0F000E8886071000AA07170BD000007490979B5
:10F10000490701D408207047002804D004494978F1
:10F110000160002070470E2070470000B8280020D2
:10F12000B42E002030B5124B1B795B0701D40820A8
:10F1300030BD002805D0002A03D00468002C10D16F
:10F1400001E00E2030BD0B4B1D68002D09D0456835
:10F150001889414369185D894543586828188842D1
:10F1600001D8072030BD14600020516030BD000080
:10F17000B8280020802F0020FEB5054625480E4601
:10F180000079400701D40820FEBD002D03D0286877
:10F19000002834D101E00E20FEBD1F4C216800295B
:10F1A0002DD060892189484361684118686881428F
:10F1B00025D9FFF759F800280FD068680190296811
:10F1C0000C2251430F1979680091401A39890C4675
:10F1D000FBF7D6FF002912D101E01020FEBD214629
:10F1E0003046FBF7CDFF002909D1002E07D07889E2
:10F1F00044430198811900980019814201D90720E0
:10F20000FEBD002002460090334629460320FDF74C
:10F2100055FDFEBDB8280020802F002010B50748FE
:10F220004469601C06D000F00BF801462046FBF74D
:10F23000A7FF10BD01200007406910BD001000109D
:10F2400001200007006980B27047000070B50024FB
:10F250000F482546047044702846FDF71FFD6D1CBD
:10F260000A2DF9D30B4D6C80FFF7D8FF861EFFF7F0
:10F27000E7FF46430648AE60CC306C610460048111
:10F2800044812C70AC610420EC616860002070BD8A
:10F29000B42E0020B8280020FFB5274881B000799F
:10F2A0001F4616460D46400702D4082005B0F0BDA3
:10F2B000002D06D00198002803D02868002815D119
:10F2C00001E00E20F2E71D4C206800280ED0618975
:10F2D00020896268414389186A68914206D9002EE4
:10F2E00004D0B04202D3F119814201D90720DDE7F1
:10F2F0000198FEF7B9FF00281BD03846FEF7B4FF8F
:10F30000002816D06868FEF7AFFF002811D06868A3
:10F310003246C1190198FBF75DFF009628680C2161
:10F3200048432458002202212846019BA047002080
:10F33000BCE71020BAE70000B8280020802F00208A
:10F34000F8B52C4D044628790E46400701D4082014
:10F35000F8BD002C20D0002E1ED0206800281BD025
:10F36000FFF76EFF0146A088814213D3102811D306
:10F37000E08800280ED0FFF751FF471EFFF760FF1F
:10F380004743E288A188A8684A431218974201D3EC
:10F39000890703D00720F8BD0E20F8BD6988012930
:10F3A00026D031600C22144B51437060CA18506053
:10F3B00020685850A0881081E0885081FFF740FFF6
:10F3C0000646FFF73DFFA188E288401E51434018E2
:10F3D0003146FBF7EBFE0446FFF732FF0146A86813
:10F3E00061430818A8606888401C68800020F8BD48
:10F3F0000420F8BDB8280020802F0020F8B504466E
:10F4000020481E46007915460F46400701D40820C3
:10F41000F8BD002F05D0002C03D02068002815D19E
:10F4200001E00E20F8BD1848016800290ED042897D
:10F43000018940684A4310186268904206D9002D3D
:10F4400004D0A94202D3A819884201D90720F8BDE7
:10F450003846FEF709FF002811D03046FEF704FFBA
:10F4600000280CD06068FEF7FFFE002807D02B466E
:10F470003A46214601200096FDF720FCF8BD1020F9
:10F48000F8BD0000B8280020802F002010B51149D9
:10F4900002460878002811D004280FD0022A16D07E
:10F4A000032A0BD10A79120711D48A69521C8A6186
:10F4B000032A08D0022802D000F0ACFB10BD487827
:10F4C00000F000FD10BD0D20FCF7B6F910BDFEF7F1
:10F4D00031FC10BDB8280020F8B5044620481E466F
:10F4E000007915460F46400701D40820F8BD002FCB
:10F4F00005D0002C03D02068002815D101E00E2093
:10F50000F8BD1848016800290ED042890189406879
:10F510004A4310186268904206D9002D04D0A942CF
:10F5200002D3A819884201D90720F8BD3846FEF752
:10F530009BFE002811D03046FEF796FE00280CD026
:10F540006068FEF791FE002807D02B463A46214618
:10F5500004200096FDF7B2FBF8BD1020F8BD0000B6
:10F56000B8280020802F002010B500680C225143DD
:10F570000C18207AFFF702FA607AFFF7FFF910BD46
:10F58000F1B582B00298002405682819203000786F
:10F59000FF2801D0FFF72AFA641CE4B2022CF4D34E
:10F5A0002220405DFF2801D0FFF72AFB00242046DF
:10F5B0000C214843002647190090B8190190007AA1
:10F5C000FF2804D0FFF712FA0199FF200872761C79
:10F5D000F6B2022EF1D300982858411C05D0FFF74F
:10F5E00047F900210098C94329500020641CE4B267
:10F5F000F872022CDBD302984068FFF71BFCFEBDBB
:10F6000010B5046820342078FFF7B8F96078FFF768
:10F61000B5F910BD0149012008707047102800207D
:10F62000F8B50D4613480127002449000E18305D37
:10F63000002806D0305D401E3055305D00280FD0C8
:10F640000027641CE4B2022CF1D3002F07D0094834
:10F65000A9000E30405802214068FFF748FBF8BD72
:10F660000448A9000E3040580068C1692846884700
:10F67000E7E700000E290020FEB50C4601680546AC
:10F68000009120460C2148430099019047181646E6
:10F690002846FFF7B5FF21462846FFF765FF01988A
:10F6A0000A30002E09D000998969B1420FD88EB274
:10F6B0002968085C002804D005E02968085C002857
:10F6C00001D0002100E001213868FFF7BBF80023DA
:10F6D000324621466868FFF7EEFA7E606968024AA2
:10F6E0000979FF205054FEBD0C290020F7B582B0E7
:10F6F0000446056803980C21484347192035AE7825
:10F70000039800902046FFF77BFF20460399FFF700
:10F710002BFF00236068049A0099FFF7CCFA31466A
:10F720003348FFF7D5F9397A012002468A40797AC1
:10F73000884010433146FFF78DF979682D4800293C
:10F7400034D0F1000E1802216068FFF7C9FA0146B3
:10F7500028783246FFF7F2F800230122032160687F
:10F76000FFF7A9FA606800210079820022488150E1
:10F7700003216068FFF795FA064602216068FFF7EB
:10F78000AFFA014668783246FFF7D8F82878FFF7D5
:10F7900011F96878FFF70EF9049878606168164AE5
:10F7A00003200979083A505405B0F0BDF1000E1855
:10F7B00060680399FFF794FA014628783246FFF70C
:10F7C000BDF800231A4603216068FFF774FA6068E9
:10F7D0000399FFF75FFA616809798A000649885042
:10F7E00003216068FFF75DFA064660680399C6E783
:10F7F000FF3F000000F0014014290020F7B5076822
:10F8000082B0044603980C214843C2193D46203576
:10F810000092AE782046FFF7F3FE31463648FFF7F8
:10F8200057F9009A0121127A08469040009A527ABC
:10F83000914008433146FFF70DF904992F480029FC
:10F8400038D0398B89B20491F1000E18022160681A
:10F85000FFF746FA014628783246FFF76FF8002393
:10F86000012203216068FFF726FA60680021007911
:10F8700082002348815003216068FFF712FA064690
:10F8800002216068FFF72CFA014668783246FFF7DC
:10F8900055F82878FFF78EF86878FFF78BF800990D
:10F8A000049848606168164A03200979083A505460
:10F8B00005B0F0BDF1000E1860680399FFF710FA6B
:10F8C000014628783246FFF739F800231A4603210B
:10F8D0006068FFF7F0F960680399FFF7DBF961688A
:10F8E00009798A000649885003216068FFF7D9F931
:10F8F000064660680399C5E7FF3F000004F0014039
:10F9000014290020F7B582B00546046803980C213D
:10F91000484307192034A6782846FFF771FE314680
:10F920002B48FFF7D5F822780121084690406278ED
:10F93000914008433146FFF78DF868680399FFF757
:10F94000B0F9009003216868FFF7CAF901462078F2
:10F95000009AFEF7F3FF6868052100680902401865
:10F9600000690006000E13D0002104980818796879
:10F9700088420FD23868FEF743FF00900321686881
:10F98000FFF7AEF901466078009AFEF7D7FF07E06F
:10F990000121EAE76278012031469040FFF798F8AC
:10F9A00004987860002368680321049AFFF783F9BC
:10F9B0003046FFF70DF96968064A0979049889000D
:10F9C0005050696803980979083A505405B0F0BD61
:10F9D000FF3F00001429002010B50C480C49408856
:10F9E000884202D0132176DF00E074DF002801D0C6
:10F9F000FBF7FAFEFCF7ACFD002801D0FBF7F4FEA4
:10FA0000FF20F530FEF740FE10BD0000002800206A
:10FA1000FFFF000070B501240B49600408600B492A
:10FA200040108860094940398860094D6C602F207A
:10FA3000FBF77AFBAC60074D00242F202C61FBF70D
:10FA400073FBEC7070BD000080E100E040130140EA
:10FA500000100140EC28002030B50A48FF21C57D88
:10FA60000022094C0931094B002D625007D09969D9
:10FA7000437EC268D154417E491C417630BD9869AD
:10FA800030BD0000982E00200020004000250040DE
:10FA90001FB501236A46137010720348019106C80E
:10FAA000684690471FBD0000982E002008B5024907
:10FAB0000020009108BD000000280020FFB5074687
:10FAC000806A81B0144600283DD000253846203099
:10FAD000009033E00C20B96A68430E18B088801C8F
:10FAE000FE2802D90C2005B0F0BD22880299401CE6
:10FAF000885420881622401C80B2208002990A5423
:10FB00002088401C80B2208002994118308800F083
:10FB100085FB2188401880B22080B288002A0AD054
:10FB2000B16800290FD0029BC018FBF753FB208857
:10FB3000B188401820806D1C0098EDB2007BA8426F
:10FB4000C8D80020CFE70720CDE7000030B599B036
:10FB5000142110A8FBF757FB0120014610A8103113
:10FB600041730120014610A8103181730020014625
:10FB700010A8C1730120014610A81031017400249F
:10FB800001251094057164211294017301461B48EC
:10FB9000FCF718FC002801D0FBF726FE4021684640
:10FBA000FBF731FB16A16846FCF788FE01200146F1
:10FBB00008A8103101770020014608A8417768465F
:10FBC000FCF7B8FD002801D0FBF70EFE0E4816909A
:10FBD0001594179410A88582084815A91830FCF7C9
:10FBE000EFFC002801D0FBF7FFFD0848FDF772FB92
:10FBF00007480078FDF700FB19B030BD682B0020E6
:10FC0000546F75720000000011D20100D9F9010093
:10FC10000028002010B50F490028087009D00128DD
:10FC200011D0022812D0032802D14869FEF7C2F889
:10FC300010BD00208861C861074840780028F7D0CF
:10FC4000FDF710F810BD00F0F5F810BD00F054F805
:10FC500010BD0000B8280020B42E0020002803D0DA
:10FC60000249C860002070470E20704724290020F8
:10FC70001CB5034901910091694660DF1CBD00007D
:10FC80000028002070B50E46054614461421104683
:10FC9000FBF7B9FA0120002120802161217326722F
:10FCA0006572002D00D0A072002070BD10B5FBF76A
:10FCB0008DFD10BD70B5002901D08C0701D0072043
:10FCC00070BD064C0125A16062800549636010DFAC
:10FCD0000028F5D1257016202EDF70BD24290020C4
:10FCE000ADFC0100002803D00249086100207047E4
:10FCF0000E20704724290020F8B5164C14226068A5
:10FD00004008400060601448017851430E1837697C
:10FD1000FFF796FA01463846FBF732FA054660616E
:10FD2000FFF78EFA0146F0887F1EC019FBF728FA0C
:10FD300002228542606801D1104300E09043606078
:10FD4000E1681040084303D0002000F0BBF8F8BD84
:10FD50000220FAE7B8280020B42E002010B502488F
:10FD60004069FEF727F810BDB828002010B5FFF74E
:10FD700055FA441EFFF764FA4443FFF761FA044959
:10FD80004A69521E5043CA682146FEF718F810BD52
:10FD9000B8280020F8B510481422017851430C18F7
:10FDA0002569FFF74DFA0146E0882289801840193D
:10FDB000FBF7E6F90F46FFF731FA461EFFF740FA68
:10FDC0004643E0882289F1198018044A40191269D3
:10FDD000FDF7F5FFF8BD0000B42E0020B828002084
:10FDE00070B5FFF72DFA0546FFF718FA441EFFF726
:10FDF00027FA60432946FBF7C3F9FDF7DBFF70BD27
:10FE000070B5FFF71DFA8608FFF71AFA0749496926
:10FE100048430446FFF702FA451EFFF711FA68430C
:10FE200032462146FDF7CBFF70BD0000B828002008
:10FE30000020704770B514481422017851430C1803
:10FE4000241DFFF7FDF96188104E884211D2FFF79B
:10FE5000F7F961880D1AFFF7F3F98208A188E068C5
:10FE60004018216940194919FDF7A9FFFFF7E8F982
:10FE700007E0A288E06880188A082169FDF79FFFE3
:10FE80006088F06170BD0000B42E0020B82800200A
:10FE900010B505480079000703D4012000F012F8DE
:10FEA00010BD00F003F810BDB828002010B50448BC
:10FEB0000822416891434160407800F003F810BD8A
:10FEC000B8280020024948700249800008580047BD
:10FED000B82800209804020010B50446FFF7D6FAAF
:10FEE0002046FCF725F910BD70B50C00054602D17F
:10FEF0000020FBF779FC002D02D10020FBF774FCF9
:10FF0000207828702088FF2109020840000A6870C4
:10FF1000206809020840000CA8702068000EE870F4
:10FF200020792871207A68712089000AA871A06858
:10FF3000000CE87170BD000010B50548007900079D
:10FF400002D4FCF77DFE10BDFFF7B0FF10BD00002E
:10FF5000B8280020FEB51F4C00252769E0680290F4
:10FF60006846FDF7B7FE0190FEF7AEF90646019828
:10FF7000002822D000230098E16817E00E680A46A6
:10FF8000864202D9301A086012E0801BF31800265E
:10FF90001660D668D169B446002E07D0FE18360226
:10FFA000360A566066469660D56115460029E5D149
:10FFB0002846E160FEF7E6F906E02846FEF7E2F99A
:10FFC000002801D1002E02D00298FCF7BBFE0020D1
:10FFD0002071FEBDEC2800200120024900050860C8
:10FFE0007047000000E200E010B50E4BD968002910
:10FFF00006D002680C68A24204D8A21A0A60C16145
:020000040002F8
:10000000D86010BD0B4604E00B46C969121B0029DD
:1000100004D00C689442F7D3A41A0C600260C1614A
:10002000D86110BDEC280020F8B51D4DEC68002CFF
:1000300034D01C48002740682969401A0602360A55
:100040002068B04218D8361AC7192246107CE469D5
:1000500000280FD0002010746B69002B07D0916925
:1000600050699847002805D0FBF7BEFB02E05169B4
:1000700090698847002CE3D16978A878814206D13D
:10008000401CC0B2A870022801D10020A870044909
:100090000006800D18310F50FFF79EFFF8BD0000DD
:1000A000EC28002000150140FF2107481D310022E7
:1000B00042500648828A8168895C828A521C828208
:1000C0000348C1617047000000200040982E0020C6
:1000D000002500401FB500216A46117010720448C7
:1000E00082680192817506C8684690471FBD00006E
:1000F000982E0020F0B5454D012185B049022846D3
:10010000FEF7F9FE01270026414C002824D0FF21EC
:1001100025312846FEF7EAFE00281DD0FF202530B5
:100120002E5081203B4980008860A07E002800D1AD
:100130006F600221684601703749086808600390C3
:10014000E17D68460172E0680190E675267606CC8E
:100150006846083C90472BE004212846FEF7CBFE7A
:10016000002825D0FF2109312846FEF7BFFE0028D0
:100170001ED0FFF771FCE07D617E884218D1207EA1
:10018000002808D0627EE168E0752069E06026768C
:10019000667610460AE0A07E002800D16F608120BC
:1001A0001C4980008860E675607EE168FFF770FC9E
:1001B000FF211D312846FEF799FE00280DD0A18AA7
:1001C000A07D814202D2FFF76FFF06E0FF211D31C3
:1001D0006E50002801D0FFF77DFFFF2145312846F2
:1001E000FEF784FE00280ED0FF2045302E50A07E62
:1001F000002800D02F60E07D002804D0E675607EE6
:10020000E168FFF745FC05B0F0BD000000200040AC
:10021000982E002000230040802400400870000A2F
:100220004870022070470000012181400248426866
:100230008A434260704700006C28002038B5154999
:10024000154A488890420FD04A78144C521CD2B2BA
:100250004A70237B934208D3091D75DF002803D021
:10026000A169002900D0884738BD00254D70217C48
:10027000002907D03B2176DF002803D0A16900299F
:1002800000D0884761690029EED06846057088472C
:1002900038BD0000A4280020FFFF0000442E0020ED
:1002A00012494868C005C00D19D0103840B2002866
:1002B00007DA0207120F083A920892005118C9692A
:1002C00004E081080A4A8900891809688007C00E7D
:1002D000C1400806800F012803D0032803D0022064
:1002E00070470020704701207047000000ED00E0DB
:1002F00000E400E042788378521CD2B2934200D1ED
:1003000000220378934201D1002070470A704168AF
:1003100040781822504308187047FFB583B016463E
:100320000C9D0D9C1F46022200950194039800F03D
:100330000CF8002807D13B46102231460095019465
:10034000039800F002F807B0F0BDFFB583B0074690
:1003500000200C9C8646268805463AE07868A9006D
:1003600042181188684681805188C1800022694600
:1003700001A865DF002839D16846017805988142D7
:1003800026D17046002801D0002200E002222088F9
:10039000891842180D998A4227D8714600290AD136
:1003A000401C80B22080069A049911542088401C79
:1003B000208001208646218806980A18694601A8EF
:1003C00065DF002812D1694620880978401820800E
:1003D0006D1C3888A842C1DC704600280AD02088ED
:1003E000801B401E80B2FF2802D90C2007B0F0BD50
:1003F000069988550020F9E70179002902D1007B90
:10040000002800D0012070473829002000900040CB
:1004100000040000B02B00200C040200D42B0020AC
:100420004C04020014000000150000000000000051
:100430000200000088130000130000000D000000FF
:1004400000000000020000008813000000A000402F
:100450000104000023D1BCEA5F782315DEEF1212FD
:100460000000000083E6010011DF01002DDE010025
:10047000CDDF01007FE60100E1DE010029DE0100A1
:10048000C5DF01007BE6010031DE010025DE010051
:10049000BDDF0100242E0020E1FD010001FE01006E
:1004A0005DFD010095FD01006DFD010091FE010063
:1004B000D1CF01007DCF010039FF0100D5DF010060
:1004C0000000000300000000000000030000000026
:1004D000030001000000000300000000FC04020013
:1004E000002800203801000068B201001805020051
:1004F00038290020A80E00002EB501003153FFFF5F
:10050000780F1801000A1801037624F40357FFFF3F
:080510000452D1D201000000E9
:040000050001B0C185
:00000001FF
